:020000040800F2
:10000000F8080024AD020008B7580008234F000884
:10001000B5580008C50400084D6E00080000000037
:10002000000000000000000000000000BD5A0008B1
:100030000507000800000000B9580008BF5A000872
:10004000C7020008C7020008C7020008C70200086C
:10005000C7020008C7020008C7020008C70200085C
:10006000C7020008C7020008C7020008F50400081C
:1000700001050008C7020008C7020008C7020008FF
:10008000C7020008C7020008B9040008C702000838
:10009000C7020008C7020008C70200088907000855
:1000A000C7020008C7020008C7020008C70200080C
:1000B000395C0008C7020008C7020008C702000830
:1000C000C7020008C7020008C7020008C7020008EC
:1000D000C70200083D6E0008C7020008C7020008FA
:1000E000C7020008C702000800000000C70200089D
:1000F000C7020008C7020008C7020008C7020008BC
:10010000C7020008C7020008C7020008C7020008AB
:10011000C7020008C7020008C7020008C70200089B
:10012000C7020008C7020008C7020008C70200088B
:10013000C7020008C7020008C7020008C70200087B
:1001400000000000000000000000000000000000AF
:10015000C7020008C7020008C7020008456E000871
:10016000C7020008C7020008C7020008C70200084B
:10017000C7020008C7020008C7020008C70200083B
:10018000C7020008C7020008C70200083D60000857
:10019000C7020008C7020008C7020008C70200081B
:1001A000C7020008C7020008C7020008C70200080B
:1001B000C7020008C7020008C7020008C7020008FB
:1001C000C7020008C7020008C7020008C7020008EB
:1001D000C7020008C7020008C7020008C7020008DB
:1001E000C7020008C7020008C7020008C7020008CB
:1001F000C7020008C7020008C7020008C7020008BB
:10020000C7020008C7020008C7020008C7020008AA
:10021000C7020008C7020008C7020008C70200089A
:10022000C7020008C7020008C7020008000000005B
:10023000C7020008C702000800000000C70200084B
:10024000C7020008C7020008C7020008C70200086A
:10025000C7020008C7020008C7020008C70200085A
:10026000C7020008C7020008C7020008C70200084A
:10027000C7020008C7020008C7020008000000000B
:10028000C7020008C7020008C702000800000000FB
:1002900000000000C7020008DFF80CD000F07AF878
:1002A00000480047716E0008F8080024064880479F
:1002B00006480047FEE7FEE7FEE7FEE7FEE7FEE74B
:1002C000FEE7FEE7FEE7FEE7855B0008990200080F
:1002D0002DE9F05F0546002092469B46884606467B
:1002E000814640241BE0284641464746224600F00E
:1002F00041F853465A46C01A914110D31146184648
:10030000224600F028F82D1A67EB01084F462246D6
:100310000120002100F01FF817EB00094E41201EBC
:10032000A4F10104DFDC484631462A464346BDE8D5
:10033000F09FD2B201E000F8012B491EFBD27047BA
:100340000022F6E710B513460A4604461946FFF7A1
:10035000F0FF204610BD202A04DB203A00FA02F10B
:10036000002070479140C2F1200320FA03F31943A3
:1003700090407047202A04DB203A21FA02F0002145
:10038000704721FA02F3D040C2F1200291400843A5
:1003900019467047064C074D06E0E06840F001033F
:1003A00094E8070098471034AC42F6D3FFF778FF83
:1003B000D0740008F0740008B0B50446006840F43A
:1003C00080703649884214BF36483548006810F4BA
:1003D000403F0ED003F020F861680546B1F5803F3C
:1003E00005D0B1F5403F20D0B1F5003F1ED1080C3B
:1003F00018E04FF40020002102F0ECF86168054697
:10040000A1F580224FEAB2420A2A0FD8DFE802F0B3
:100410000606060606063B3D3F4143006FF001001D
:1004200000EA5140B5FBF0F500E0AD0801F058FEE0
:1004300041F20301884207D820681E498D42816835
:100440000AD341F480711CE01748854207D8206820
:10045000816821F4407114E021F4807111E01348A7
:10046000854203D820680122816805E02068104990
:100470008D42816803D8022262F3092101E041F430
:1004800040718160B0BD2D09D0E76D09CEE7AD099F
:10049000CCE7ED09CAE72D0AC8E700BF00210240FA
:1004A000082302400863025821BCBE0041787D0148
:1004B00081F0FA02012D3101014800F06DBB00BF4F
:1004C000B0000024FEE7000010B500F04BF9022157
:1004D000AC4C0022204601F0FEFD142001F0CEFCC1
:1004E00002210122204601F0F6FD1E20BDE8104049
:1004F00000F00AB9014801F047B800BF1401002418
:10050000014801F041B800BF8C0100240168274A6E
:10051000914223D0264A91421CBF264A91421DD0C7
:10052000254A91421CBF254A914217D0244A914244
:100530001CBF244A914211D0234A91421CBF234A36
:1005400091420BD0224A91421CBF224A914205D0CF
:10055000214A91421CBF214A91421AD180B56FF0C5
:100560000F02DFF888C052FA81F21823B2FBF3F3CE
:1005700040F2FF3E21EA0E015F2A03F007031CF858
:100580000330C36588BF0431BDE8804081650846FB
:100590007047134A9142E1D0124A9142DED0124A8A
:1005A0009142DBD021F0FF01F0E700BF10000240D4
:1005B0002800024040000240580002407000024003
:1005C00088000240A0000240B8000240100402402F
:1005D00028040240400402405804024070040240D3
:1005E00088040240B8040240A0040240B674000827
:1005F00002683A498A421F491CBF394B9A4205D0CA
:10060000384B9A421CBF384B9A4213D1D3B2A3F154
:1006100008021423B2FBF3F301F1800201EB830122
:1006200003F01F0301664FF0010C0CFA03F1C0E95F
:10063000192170472D4B9A42E8D02D4B9A42E5D0B4
:100640002C4B9A42E2D0A1F55B7CD3B26245DED05E
:10065000A3F110011823B1FBF3F1084B03F1AA0C2D
:100660009A420B4688BF0833624528BF0B460249B1
:10067000D2E700BF00580258000802400F040240B1
:1006800001790139072988BF70470268134B9A42E4
:100690001CBF134B9A4205D0124B9A421CBF124BFF
:1006A0009A420BD18A00164B4FF0010C1A4440338A
:1006B000C2660CFA01F1C0E91C3170470B4B9A423B
:1006C000F0D00B4B9A42EDD00A4B9A42EAD00A4B3B
:1006D0009A424FEA8102E6D0084BE5E708540258F7
:1006E0001C5402583054025844540258585402586A
:1006F000805402586C540258945402580009024025
:100700000059025870470000154941F21113096859
:100710000A6A1A4208D10A6A40F244431A4203D1D3
:100720000A6822F001020A6000224A620A6842F066
:1007300001020A604A6A92B28242FBD3086A41F21D
:100740001112104200D07047086A40F24442104231
:1007500018BF7047086820F001000860704700BFAC
:10076000E8020024FEB5002005900220012101903E
:10077000CDE9021101A90490024801F0DDFB06B0A9
:1007800080BD00BF00080258202001F0CBBBEFF372
:10079000108072B6FEE77047704770477047704729
:1007A00090F85020012A01D1022137E01CB5012226
:1007B000F24C80F850200022019200920368A3427C
:1007C00022D1D4F80831A2681A4352071CD4D1F8B8
:1007D00000C0D4F80823BCF1000F22F440431FD01E
:1007E0004A681A43C4F80823A268D4F808311A43A7
:1007F000D20724D1D4F8082340F61F7389689A439E
:1008000041EA0C01114318E0416D41F020014165BE
:100810000121002280F85020BDE81C4008467047A6
:10082000C4F80833A168D4F808211143C90706D1D8
:10083000D4F8081340F61F729143C4F8081300213E
:10084000E7E700BFF8B500220092074690F8500095
:10085000012801D102205AE10D46012187F85010EC
:1008600038688268520700F14A812A6892FAA2F336
:10087000B3FA83F3140308BF930E03F01F036C68ED
:100880009940C3691943C161C4F3012104F01F03F6
:1008900000EB81011F240E6BC2F384629C40A643CF
:1008A0009A4032430A6381688268D20842EA910121
:1008B000C90773D12968AA6804F0EAFCAB4800684C
:1008C00000F07040B0F1805F06D138680E2369698E
:1008D000C26803EA52020CE03868C2686969D2064D
:1008E000C3684FEA530202D402F00E0201E002F0A4
:1008F00008022B69042B28D1016E01F0F8412A6807
:10090000B1EB826F4FEA826103D1026E22F00042A6
:100910000266426E02F0F8428A4203D1426E22F031
:1009200000424266826E02F0F8428A4203D1826E31
:1009300022F000428266C26E02F0F8428A422DD155
:10094000C16E21F00041C16628E02E6800F160040C
:10095000914054F8232006F0F84602F0004231435B
:10096000114344F8231029696A7E54F8213023F09A
:100970000043012A08BF03F1004344F82130297ED7
:100980002A6901390369B1FA81F14909C90202F002
:100990001F0223F4F0439140194301618168C907A4
:1009A0006CD1EE68704AD5F800E006F01801D0F876
:1009B000C0400EEA020322FA01F16D4A9C4319403D
:1009C00021439642C0F8C01055D19EFAAEF1B1FA5B
:1009D00081F21146002B08BF4FEA9E61013101F000
:1009E0001E0109294FEA9E6C0CD8C3B14FF08061FB
:1009F00001EB826101F0F843511C01F01F0101225B
:100A00008A4018E0EBB14FF0806101EB826101F0A8
:100A1000F843511C01F01F0101228A401DE00EF035
:100A2000F84101F1806101F0F8420CF1010101F09F
:100A30001F0101238B401A4301EB410142EA01519E
:100A400014E00EF0F84101F1806101F0F8420CF180
:100A5000010101F01F0101238B4001EB41011A4309
:100A6000444B03EB0151114341F00071AA6804F0BB
:100A70000FFCD5F800E0BEF1FF3F01DD002043E0B0
:100A8000DB4D05F58071386805F540733A4AD94C5D
:100A90008842194618BF02F54071A84208BF19469E
:100AA00040F48073A3428B6805D1A968D5F808612A
:100AB00046EA010500E09568E90720D130498E45F6
:100AC00003F0E0752CD02F498E4538D190424FF07D
:100AD000000008BF13F4000116D1D2F808032B4917
:100AE00020F0E070284340F40000C2F808032648D4
:100AF0000068B0FBF1F0022101EB40000BE0786DE3
:100B000040F0200078650120002187F8501001B0E6
:100B1000F0BD00980138009000980028F9D1ADE7A9
:100B200090424FF0000008BF13F08071ECD1D2F872
:100B3000080320F0E070284340F0807010E09042FD
:100B40004FF00000E0D112498E4508BF13F4800138
:100B5000DAD1D2F8080320F0E070284340F4800096
:100B6000C2F808038AE700BFFFFF0F000010005C17
:100B70000000FF47000020FE0060025800200240F5
:100B8000000052C7000084CB40000024400D030049
:100B90000000B8CF704770472DE9F843044600685D
:100BA00040F48072934B01689A42904B4268904F98
:100BB000994608BF07F5407302EA01059968AA073C
:100BC00001F01F080CD5606DC00603D4606D40F4C1
:100BD000006060652046FFF7DEFD206802210160AD
:100BE00015F00C0F47D0616DC90603D4616D41F457
:100BF00000716165C16811F4406F36D107F58071ED
:100C00008842014608BF3946814202460CD0B8F1FD
:100C1000090F00F2E980012202FA08F240F22123D2
:100C20001A42024608BF0A46D16889041DD40168E9
:100C300009071AD5816849070FD4416821F00C01D2
:100C40004160606D20F480706065606DC0040CD4FC
:100C5000606D40F00100606507E0606D40F01000DD
:100C60006065A06D40F00100A0652046FFF792FF8F
:100C700020680C21016015F0600F26D0616DC90657
:100C800003D4616D41F4005161653E46C16C07F5C6
:100C90008077B84201F4C072C16803460BD1B8F145
:100CA000070F00F29F80012303FA08F313F0C10F2E
:100CB0003B4608BF3346002ADA68374663D02046F1
:100CC000FFF76AFD206860210160290609D5606D83
:100CD00040F480306065204600F08AF92068802169
:100CE0000160E9050AD5606D40F40030606520467A
:100CF000FFF754FD20684FF480710160A9050AD503
:100D0000606D40F4802060652046FFF748FD206854
:100D10004FF400710160E90621D5216B89B1B8F16A
:100D2000000F52D007F5807107F54072884208BF66
:100D30009146B84208BF9146D9F8081011F4404FC7
:100D40000BD0606D40F480606065A06D40F00200E3
:100D5000A0652046FFF71FFF20681021016069058C
:100D600001D4BDE8F883616D41F480416165A16DF6
:100D700041F00801A1654FF4806101602046BDE8A3
:100D8000F843FFF70ABD930105D501F4406102F471
:100D90000053C91893D19102016890D411F0400119
:100DA0008DD08168090714D4416821F06001416049
:100DB000606D20F480506065606DC0053FF57FAFC9
:100DC000606D40F00100606579E7C1688907B8D1BE
:100DD000C3E7606D40F010006065A06D40F0010059
:100DE000A0656CE7334666E70A461DE700630258D4
:100DF00000200240002102407CB500210028019122
:100E000036D00446406D30B9204600F0F3F800209B
:100E1000A06584F8500020688168890003D5816846
:100E20006A4A114081608168C90014D4674A8168A8
:100E300002F180521140674A41F08051816064495B
:100E40000968B1FBF2F1013101E001990139019129
:100E500001990029F9D18168C9000BD4616D012580
:100E600041F010016165A16D41F00101A16502E051
:100E70000125A7E000258168C1F38001626D02F0C1
:100E800010028918616D03D041F01000012598E02F
:100E900021F48171023161658168C90721D140F473
:100EA00080714D4A91427B4904D18A68D1F808315A
:100EB0001A4301E0494A1268D20712D101F5807243
:100EC000464E01F5407390421A4618BF06F53E7231
:100ED000884208BF1A466068916821F47C11084373
:100EE000906001F0FDF8627D41F20403A168984230
:100EF0004FEA4232236B09D3102907D1207F43EAFE
:100F0000020141EA004141F01C0104E01A43207F44
:100F1000114341EA0041012804D1206A304A02EB22
:100F200040400143606A28B100F47870A26A084327
:100F300040EA020120682B4BC2681A401143C1608D
:100F400081688268D20842EA9101C9072BD1217DCC
:100F500044F20303E26A42EA8131C2689A431143D0
:100F6000C16094F83810012901690FD11E4A11405F
:100F70001E4ED4E90F2306EB02421943636C114362
:100F8000A26C1943114341F0010101E021F001017C
:100F90000161016921F07041626B114301612046DA
:100FA000FFF70AFA2068E168026B012922F00F01BD
:100FB00002D1A269013A114301630121606D61F31D
:100FC00001006065284602B070BD00BFC0FFFF5F32
:100FD00040000024400D0300002102400860025838
:100FE0000000FEFF03C0F0FF1EF800FC0000FFFF42
:100FF00070470000B0B5B8B0044633A81421FFF71D
:101000009FF902A8C021C025FFF79AF9206821495D
:1010100088423DD14FF40020002402900420039424
:101020000490092005900220CDE90600CDE90805CD
:1010300020200A904FF440600B9002A82B9401F0FE
:1010400011FC08B1FFF7A3FB1348016841F0200130
:101050000160016801F0200101910199816841F06E
:101060000101816033A9806800F0010001900198BE
:10107000082033900320CDE93404084800F05CFFD9
:1010800012200021002201F0ABF8122001F09AF8A2
:1010900038B0B0BD00200240D844025800000258C9
:1010A000F8B5044601F022F8002C00F0AA800546AD
:1010B00094F83500022840F0A6802768AC4EB7426D
:1010C00038463CD0AB488742384638D0AA48874299
:1010D000384634D0A9488742384630D0A84887429D
:1010E00038462CD0A7488742384628D0A6488742A1
:1010F000384624D0A5488742384620D0A4488742A5
:1011000038461CD0A3488742384618D0A2488742A8
:10111000384614D0A1488742384610D0A0488742AC
:1011200038460CD09F488742384608D09E488742B0
:10113000384604D09D48874240F0E9809B480168CA
:1011400021F01E0207F1140102606FF080000A68AE
:10115000B74200EA020008603CD0F44887421CBF56
:10116000F348874236D0F34887421CBFF248874293
:1011700030D0F24887421CBFF14887422AD0F1485C
:1011800087421CBFF048874224D0F04887421CBFEA
:10119000EF4887421ED0EF4887421CBFEE48874287
:1011A00018D0EE4887421CBFEE48874212D0EC4868
:1011B00087421CBFEC4887420CD0EC4887421CBFDA
:1011C000EB48874206D0EB4887421CBFEA4887427B
:1011D00040F0B680206E016821F4807101603868AB
:1011E00020F0010038603868C00710D000F07EFFA2
:1011F000401B0628F7D320206065032084F83500C3
:1012000003E0012081E08020606501207AE0206811
:10121000B0421CBFC54988421DD0C54988421CBF89
:10122000C449884217D0C44988421CBFC349884278
:1012300011D0C34988421CBFC24988420BD0C24961
:1012400088421CBFC149884205D0C14988421CBFA1
:10125000C04988425FD1A16DE26D3F2302F01F02B9
:1012600003FA02F28A60B0423BD0B04988421CBF08
:10127000AF49884235D0AF4988421CBFAE49884249
:101280002FD0AE4988421CBFAD49884229D0AD4914
:1012900088421CBFAC49884223D0AC4988421CBF5D
:1012A000AB4988421DD0AB4988421CBFAA4988423D
:1012B00017D0AA4988421CBFAA49884211D0A84920
:1012C00088421CBFA84988420BD0A84988421CBF4D
:1012D000A749884205D0A74988421CBFA649884231
:1012E0003BD1E06ED4E9191200284A6006D00168AB
:1012F00021F480710160D4E91C014160012084F86F
:1013000035000020002184F8341001B0F0BD6FF0EA
:101310000E0039461BE7904988429CD0914988428B
:1013200099D08E49884296D08D498842A16D93D03C
:10133000E26D012302F01F0203FA02F24A6092E713
:101340008E4887423FF446AF8D4887423FF442AF14
:101350008C4887423FF43EAF41E788498842C0D07D
:1013600087498842BDD087498842BAD0C6E700BFC6
:101370001000024028000240400002405800024095
:101380007000024088000240A0000240B800024005
:101390001004024028040240400402405804024065
:1013A0007004024088040240A0040240B8040240D5
:1013B00010B5002841D090F8351002293BD10168C2
:1013C000594A914223D0594B99421CBF584B9942DC
:1013D0001DD0584B99421CBF574B994217D0574BC1
:1013E00099421CBF564B994211D0564B99421CBF93
:1013F000554B99420BD0554B99421CBF544B9942C7
:1014000005D0544B99421CBF534B99423CD1042305
:10141000914280F835301CBF4448814205D0444891
:1014200081421CBF434881420AD1086820F0010074
:101430000860002102E0802141650121084610BDBD
:101440003D488142F1D03D488142EED03C48814246
:10145000EBD03C4881421CBF3B488142E5D03B4831
:1014600081421CBF3A488142DFD03A4881421CBFCA
:1014700039488142D9D039488142D6D03848814252
:10148000D3D038488142D0E7344B9942BFD0344B57
:101490009942BCD0334B9942B9D00A6822F00E026F
:1014A0000A60314A91420A6822F001020A600BD0B8
:1014B0002E4A91421CBF2E4A914205D02D4A91429C
:1014C0001CBF2D4A914225D1D0E916C2D0E9183E61
:1014D000196802F01F0221F480710124196004FAD6
:1014E00002F1CCF80410816ECEF80410C16E31B157
:1014F0000A6822F480720A60D0E91C124A60012155
:1015000080F835100021026D002A80F8341095D043
:1015100090478EE7194A9142D6D0194A9142D3D0CA
:10152000184A9142D0D0EAE7100002402800024059
:101530004000024058000240700002408800024013
:10154000A0000240B80002401004024028040240FB
:1015500040040240580402407004024088040240E3
:10156000B8040240A0040240085402581C54025817
:101570003054025844540258585402586C5402587B
:1015800094540258805402582DE9FC410021C64F62
:1015900001910446DFF8081C0068A56DB842D1F837
:1015A00000802E6829682AD0C04A90421CBFC04AD9
:1015B000904224D0BF4A90421CBFBF4A90421ED0E6
:1015C000BE4A90421CBFBE4A904218D0BD4A9042CB
:1015D0001CBFBD4A904212D0BC4A90421CBFBC4ABC
:1015E00090420CD0BB4A90421CBFBB4A904206D0EE
:1015F000BA4A90421CBFBA4A904240F0A181E16DC4
:10160000082201F01F018A40324236D0BC46B8425F
:101610004FF0040324D0A54FB8421CBFA44FB842DA
:101620001ED0A44FB8421CBFA34FB84218D0A34F3E
:10163000B8421CBFA24FB84212D0A24FB8421CBF42
:10164000A14FB8420CD0A14FB8421CBFA04FB84226
:1016500006D0A04FB8421CBF9F4FB84240F09881BF
:1016600007681F42674608D0036823F0040303603D
:10167000AA60626D42F00102626501228A40324234
:101680002ED0B84224D0894B98421CBF884B984238
:101690001ED0884B98421CBF874B984218D0874B6E
:1016A00098421CBF864B984212D0864B98421CBF72
:1016B000854B98420CD0854B98421CBF844B984276
:1016C00006D0844B98421CBF834B984240F06D81FA
:1016D00043691B0604D5AA60626D42F0020262658E
:1016E00004228A4032422ED0B84224D06F4B984216
:1016F0001CBF6F4B98421ED06E4B98421CBF6E4B66
:10170000984218D06D4B98421CBF6D4B984212D036
:101710006C4B98421CBF6C4B98420CD06B4B984260
:101720001CBF6B4B984206D06A4B98421CBF6A4B59
:10173000984240F0488103689B0704D5AA60626D17
:1017400042F004026265102202FA01F131423FD0F8
:10175000B8424FF0080224D0D24B98421CBFD24B63
:1017600098421ED0D14B98421CBFD14B984218D002
:10177000D04B98421CBFD04B984212D0CF4B9842CE
:101780001CBFCF4B98420CD0CE4B98421CBFCE4BC7
:10179000984206D0CD4B98421CBFCD4B984240F0AA
:1017A00020810368134213D0A960016849030168CE
:1017B00006D4C90506D4016821F00801016001E0E2
:1017C000080301D4216C00E0A16C09B120468847D0
:1017D000E06D00F01F01202000FA01F2324200F01B
:1017E000858020681023B84224D0AE4EB0421CBF82
:1017F000AD4EB0421ED0AD4EB0421CBFAC4EB0425A
:1018000018D0AC4EB0421CBFAB4EB04212D0AB4E63
:10181000B0421CBFAA4EB0420CD0AA4EB0421CBF70
:10182000A94EB04206D0A94EB0421CBFA84EB0424D
:1018300040F0E48007681F4258D0AA6094F8352031
:10184000042A02681BD122F016020260426922F0CB
:1018500080024261226C0AB9A26C1AB1026822F0BD
:10186000080202603F208840A860012084F835000B
:101870000020216D002984F834005DD15EE0510321
:1018800001680CD4C9052DD4016821F01001016054
:10189000012084F83500002084F8340022E0080399
:1018A00020D4616C1FE000BF1000024028000240FD
:1018B0004000024058000240700002408800024090
:1018C000A0000240B8000240100402402804024078
:1018D0004004024058040240700402408804024060
:1018E000A0040240E16B09B120468847606D28B32F
:1018F000606DC0071ED04FF41650B8FBF0F0042105
:1019000084F8351021680A6822F001020A60019A01
:1019100001328242019202D80A68D207F7D10868E0
:10192000C0074FF0030008BF012084F835000020F5
:1019300084F83400E16C09B120468847BDE8FC8199
:10194000664A90421CBF664A90420CD0654A90425B
:101950001CBF654A904206D0644A90421CBF644A4C
:10196000904240F091800268E36D570703F01F0337
:1019700051D504279F4017EA01064CD011046F602F
:1019800060D4910662D4016821F0040101605DE039
:10199000504FB8423FF464AE4F4FB8423FF460AE90
:1019A000544FB84218BF08235AE64A4B98423FF4B6
:1019B0008FAE494B98423FF48BAE4E4B98423FF46A
:1019C00087AE02688CE6434B98423FF4B4AE424B7C
:1019D00098423FF4B0AE474B98423FF4ACAE026839
:1019E000B1E63C4B98423FF4DCAE3B4B98423FF4AF
:1019F000D8AE404B984218BF0422D2E6354EB042D2
:101A00003FF418AF344EB0423FF414AF394EB042F9
:101A100018BF02230EE797071AD502279F4017EA3F
:101A2000010615D011046F6028D491062AD40168EC
:101A300021F00A010160012084F83500002084F8BB
:101A400034001FE0D00301D4A16C74E7216C72E76D
:101A500012077FF573AF08229A4011403FF46EAF32
:101A60000168012221F00E01016002FA03F06860B2
:101A70000020626584F83520E16CFBE6D00301D4D8
:101A8000616C58E7E16B56E7F74A90423FF46BAF61
:101A9000F64A90423FF467AFF54988423FF4AFAD54
:101AA0004CE700BF280002404000024058000240BE
:101AB0007000024088000240A0000240B8000240CE
:101AC000100402402804024040040240580402402E
:101AD0007004024088040240A0040240945402585A
:101AE000085402581C5402583054025844540258A6
:101AF00058540258B8040240F8B5044600F0F6FA0B
:101B0000002C7BD005462068C24FB8422AD0C2497B
:101B100088421CBFC149884224D0C14988421CBFA9
:101B2000C04988421ED0C04988421CBFBF49884274
:101B300018D0BF4988421CBFBE49884212D0BE4956
:101B400088421CBFBD4988420CD0BD4988421CBF99
:101B5000BC49884206D0BC4988421CBFBB49884268
:101B600040F0F380022184F83510002184F834100D
:101B7000016821F00101016005E000F0B7FA401BA7
:101B8000052836D820680168C907F6D10168B94A26
:101B90001140D4E9022311432269194363691143B7
:101BA000A2691943E36941EA0205616A2B43256A88
:101BB000042943EA050303D1D4E90B562B433343ED
:101BC000AD4D2E68B6F1005F1CD36568292D19D381
:101BD0002F2D15D3A5F13F06042E11D3472D11D378
:101BE000492D0DD3A5F14F06032E98BF43F4801362
:101BF00008E020206065032084F835000120A2E081
:101C000043F4801303600429436923F0070341EA86
:101C1000030127D1D4E90A53002B41EA050121D061
:101C2000B2F5005F06D08AB9022D12D0012D07D07F
:101C30007DB117E0032D15D8DFE805F00E0B0E027D
:101C4000A3F1C072B2FA82F2520904E0032D03D369
:101C500008D1C3F300622AB140206065012084F8F6
:101C6000350070E041612046FEF750FCE16D3F22F7
:101C700001F01F0102FA01F181602068B8423CD0F6
:101C8000654988421CBF6549884236D0644988420C
:101C90001CBF6449884230D0634988421CBF6349F5
:101CA00088422AD0624988421CBF6249884224D0B7
:101CB000614988421CBF614988421ED06049884200
:101CC0001CBF6049884218D05F4988421CBF5F49E9
:101CD000884212D0664988421CBF5E4988420CD0B7
:101CE0005D4988421CBF5D49884206D05C498842F4
:101CF0001CBF5C49884240F080802046FEF778FC9B
:101D0000A068802802D10020606000E06068C2B254
:101D1000216E0138D4E9193707280A605F6009D8B5
:101D20002046FEF7ADFC04F16C0207CA00230360F5
:101D30004A6003E00020C4E91B0060670020012125
:101D4000606584F8351001B0F0BD414988421CBF80
:101D5000404988420BD0404988421CBF3F498842D5
:101D600005D03F4988421CBF3E49884239D10221F3
:101D700084F83510002184F834100168A2686FF3EC
:101D80001011A2F18003B3FA83F35B09402AE268E1
:101D90004FEA833341EAD20108BF10232269194375
:101DA000636941EAD201A26941EAD301E36941EAE8
:101DB000D201226A41EAD30141EA121140F808191E
:101DC0001421C0B2B0FBF1F08000E0652046FEF7C0
:101DD0009DFBE16D012201F01F0102FA01F141605A
:101DE0004BE721498842C2D020498842BFD02049D0
:101DF00088423FF4B7AE4020FCE61B4988423FF4DE
:101E00007CAF134988423FF478AF184988423FF4C9
:101E100074AF93E7100002402800024040000240E7
:101E2000580002407000024088000240A0000240BA
:101E3000B80002401004024028040240400402405E
:101E4000580402407004024088040240A00402408A
:101E500094540258085402581C54025830540258E2
:101E600044540258585402586C5402588054025832
:101E7000B80402403F8010FE0010005CB0B504467C
:101E800000F034F9C54905460978621C18BF0C44B6
:101E900000F02CF9401BA042FAD3B0BD00000000B6
:101EA00010B520282FD11C4C2021204600F00EF91F
:101EB00038B11A4C204601F021FF20680021416210
:101EC00010BD2021204600F001F9002818BF10BDE8
:101ED000124C204601F012FF20684FF4AA71406AAC
:101EE00048439FED091B400800EE100A0C48B8EE6D
:101EF000400B20EE010B9FED061B20EE010BB7EE11
:101F0000C00B80ED000A10BD8DEDB5A0F7C6B03E48
:101F10000000000000005940000002585002002458
:101F2000AC00002403490A68024208BF70470860F9
:101F3000FFF7B6BF880000582DE9FE4F604A0A2718
:101F4000604C019002444FEAB223A04208BF092727
:101F5000002600204FF0000B092B38BF4FEAB227B4
:101F60000097A4E0012303FA0BF412EA040C00F03A
:101F70009A80D1F80480324608F0030EAEF10107D2
:101F8000012F16D8019E0323B76803FA00F5CB682A
:101F9000AF4383403B43B3604FEA4B097368C8F3D8
:101FA0000017A34307FA0BF423436FEA050A736093
:101FB0000CE00323019E8340BEF1030F6FEA030A86
:101FC000814603D181464FF0030E1FE0F368BEF156
:101FD000020F8C6803EA0A0304FA09F443EA0403D3
:101FE000F36013D16FF0030303EA5B03334402F0A1
:101FF0001C071D6A0F24BC40A5430C6904FA07F7AF
:102000002F431F62D1F8048008F0030E33680EFAE4
:1020100009F703EA0A033B4318F4403F33601646CE
:1020200041D0674B1F46284A1B680F2443F0020328
:102030003B604FF0B04E3B6803F0020302932BF07D
:102040000303029F06F00C079D58BC40A543009C6B
:1020500004FA07F72F439F50DEF800304F6843EA39
:102060000C05FC0258BF23EA0C05CEF80050134BB8
:102070001A461B68BC0243EA0C0558BF23EA0C054C
:102080001560D2F88030BC0343EA0C0558BF23EA40
:102090000C05C2F88050D36FFF0343EA0C0558BF0C
:1020A00023EA0C05D5670BF1010B023004360A68F0
:1020B00032FA0BF77FF456AFBDE8FE8F04000058EC
:1020C0000000FEA7002402580804005800690840D8
:1020D00018BF01207047002A08BF090481617047BA
:1020E00001480068000C70470010005C054800685B
:1020F000704700BF2948007802490A681044086008
:10210000704700BFF004002480B5032000F088F879
:1021100001F0C2F90F490A68C2F303220968624B51
:1021200001F00F019A5C595C02F01F02D0400A4A8C
:1021300001F01F0120FA01F11160194908600F2018
:1021400000F00CF808B1012080BD00F02BF8002051
:1021500080BD00BF184402584400002470B50F4EE3
:102160003178C1B104464FF47A70B0FBF1F00C49FC
:102170000968B1FBF0F001F09FFC0F2C4FF0010556
:102180000AD848B94FF0FF3000222146002500F060
:1021900027F8746000E00125284670BD380000244F
:1021A0004000002481B00648016841F0020101604E
:1021B000006800F002000090009801B0704700BF76
:1021C000F4440258002808DB00F01F01012202FA43
:1021D00001F1024A400942F82010704700E100E096
:1021E00080B5154B1B68C3F3022C8CF0070EBEF1B3
:1021F000040F28BF4FF0040EBCF103034FF0FF3C67
:1022000038BF00230CFA0EFE21EA0E0199400CFAA9
:1022100003F39A431143BDE8804004F019BE00BFA8
:1022200005490A684FF6FF031A4060F30A22034883
:1022300010430860704700BF0CED00E00000FA0595
:10224000B0B5104D29684907296805D401F0070188
:10225000081A18BF0120B0BD21F00701084328600B
:10226000FFF744FF044655F8080C800407D4FFF735
:102270003DFF001BB0F57A7FF5D90120B0BD0020ED
:10228000B0BD00BF0C48025880B501F0C5F8054943
:10229000054A0968C1F30211515C01F01F01C840F1
:1022A00080BD00BF204402588E74000810B53D4C1C
:1022B000A36AA26AC2F3051CE26A616B02F0010222
:1022C000C1F3CC01BCF1000F02FB01F100EE101ACA
:1022D000B8EE400A0CD003F00303022B0CD0012B04
:1022E0000DD013B9216889060CD49FED311A13E083
:1022F0000021C0E9001153E09FED2C1A0CE09FED86
:102300002A1A09E021682B4AC1F3C10122FA01F11E
:1023100001EE101AB8EE411A02EE10CA9FED263AED
:10232000B8EE422A216B6FF35F2181EE021A02EEB2
:10233000101AB8EE422A216BC1F3462100EE032A9F
:10234000B7EE000A03EE101A32EE002AB8EE433A56
:1023500021EE021A33EE002A81EE022ABCEEC22AD6
:1023600080ED002A216BC1F3064102EE101AB8EE8F
:10237000422A32EE002A81EE022ABCEEC22A80ED09
:10238000012A216BC1F3066102EE101AB8EE422A4F
:1023900032EE000A81EE000ABCEEC00A10EE101AFE
:1023A000816010BD004402580024744A20BCBE4B1A
:1023B0000024744C0090D0030000003910B53C4C50
:1023C000A36AA26AC2F3053CE26AC2F30012E16B9F
:1023D000C1F3CC01BCF1000F02FB01F100EE101AB9
:1023E000B8EE400A0AD003F00303022B0AD063B907
:1023F000216889060CD49FED311A13E00021C0E951
:10240000001153E09FED2C1A0CE09FED2A1A09E011
:1024100021682B4AC1F3C10122FA01F101EE101A21
:10242000B8EE411A02EE10CA9FED263AB8EE422AE3
:10243000A16B6FF35F2181EE021A02EE101AB8EE63
:10244000422AA16BC1F3462100EE032AB7EE000A2F
:1024500003EE101A32EE002AB8EE433A21EE021AC9
:1024600033EE002A81EE022ABCEEC22A80ED002A59
:10247000A16BC1F3064102EE101AB8EE422A32EE09
:10248000002A81EE022ABCEEC22A80ED012AA16B4D
:10249000C1F3066102EE101AB8EE422A32EE000ACB
:1024A00081EE000ABCEEC00A10EE101A816010BD69
:1024B000004402580024744A20BCBE4B0024744CD3
:1024C0000090D0030000003910B53C4CA36AA26A0A
:1024D000C2F3055CE26AC2F30022616CC1F3CC0175
:1024E000BCF1000F02FB01F100EE101AB8EE400A39
:1024F0000AD003F00303022B0AD063B921688906CE
:102500000CD49FED311A13E00021C0E9001153E013
:102510009FED2C1A0CE09FED2A1A09E021682B4A46
:10252000C1F3C10122FA01F101EE101AB8EE411A0D
:1025300002EE10CA9FED263AB8EE422A216C6FF3E4
:102540005F2181EE021A02EE101AB8EE422A216CC7
:10255000C1F3462100EE032AB7EE000A03EE101A7B
:1025600032EE002AB8EE433A21EE021A33EE002A88
:1025700081EE022ABCEEC22A80ED002A216CC1F352
:10258000064102EE101AB8EE422A32EE002A81EE1F
:10259000022ABCEEC22A80ED012A216CC1F3066139
:1025A00002EE101AB8EE422A32EE000A81EE000A5C
:1025B000BCEEC00A10EE101A816010BD0044025833
:1025C0000024744A20BCBE4B0024744C0090D003FD
:1025D00000000039F8B580F400220A4300F07F8043
:1025E00080F400720A4332D080F480620A4300F023
:1025F000878080F400620A4338D080F480520A4316
:1026000000F08B8080F400520A4300F0948080F444
:1026100080420A4337D080F400420A4342D080F41B
:1026200080320A434ED080F48070084340F0DF804F
:102630008749086D00F00702042A00F2D880884814
:10264000DFE812F0770087008E00D6009600804900
:10265000086DC0F38212042A00F2C9808048DFE8C6
:1026600012F0680078007F00C70087007849886D05
:10267000C0F30262042A00F2BA807948DFE802F06F
:10268000596970B878007248816DC1F302710529EB
:1026900000F2AD80DFE801F003869198A28DFFF78C
:1026A000F3FDA5E06A48016D01F04051B1F1005F12
:1026B00000F07880B1F1805F00F09680002940F052
:1026C000968076E06248C16CC903006840F18D8055
:1026D000000140F18C8001A8FFF770FEA1E05C488A
:1026E000816D01F44031B1F5003F00F08880B1F513
:1026F000803F00F09080002940F07980006829E058
:102700005349886DC0F34252042A00F27080544845
:10271000DFE802F00F1F266E2E004D49086DC0F352
:102720000232042A63D84E48DFE802F003131A622B
:102730002200086859E04648016DC1F302410529AD
:1027400055D8DFE801F0032F3A414B3600F084FE04
:102750004EE0086800014AD501A8FFF72FFE05E00A
:102760000868800043D501A8FFF7AEFE01983FE05E
:10277000C86C10F040520B68086802D113F00403D3
:1027800026D1B2F1805F02D110F4807051D1086877
:1027900010F400301CBF47F64000C0F27D10B2F1CB
:1027A000005F52E00068000121D501A8FFF706FE96
:1027B00023E000682749800313E00068800016D5F5
:1027C00001A8FFF781FE18E0016849070FD50068EE
:1027D000C0F3C100214921FA00F009E000681E4958
:1027E000C00501EAE07003E00068800102D4002027
:1027F00004B080BD01A8FFF759FD0298F8E7C16C4D
:1028000011F04051036802680DD113F004030AD09F
:10281000C2F3C100DEE700688000E8D501A8FFF739
:1028200053FE0398E4E7B1F1805F04D112F48072A3
:1028300001D00948DCE7006810F400301CBF47F6FF
:102840004000C0F27D10B1F1005F18BF0020CFE75B
:102850000044025840787D0100093D000090D003FB
:102860000080BB002DE9F0470446C078B04F000758
:1028700022D5A06E4FEA3051032908D8DFE801F0D5
:1028800002090F17F96941F40031F9610FE00126DF
:1028900013E004F10800022103F010F804E004F151
:1028A0002800022103F08AF8064630B9A06E396C80
:1028B00021F440110843386400266078BA46C00706
:1028C00001D135462AE0A06D04280BD83546DFE853
:1028D00000F0030C12181800F869354640F4003077
:1028E000F8610EE00125012719E004F1080000213C
:1028F00002F0E4FF04E004F12800002103F05EF898
:102900000546002D2F460AD1DAF84000002520F0B8
:102910000700A16D08435246CAF840003746607868
:1029200080072DD5E06D4FEAB01004280CD8DFE801
:1029300000F0030E141A1A00DAF81C00514640F495
:102940000030CAF81C000EE00125012619E004F150
:102950000800002102F0B2FF04E004F12800002189
:1029600003F02CF80546002D2E460AD1DAF8400077
:10297000002520F4E070E16D08435246CAF840009B
:102980003E466078400702D4B04657462CE0D4F863
:10299000A80057464FEA7050042809D8DFE800F035
:1029A000030C12181800F86940F40030F8610FE0C9
:1029B00001254FF0010817E004F10800002102F0A2
:1029C0007DFF04E004F12800002102F0F7FF054636
:1029D000002DA84608D1B86C002520F46000D4F87A
:1029E000A8100843B046B864607800072CD5D4F826
:1029F000AC004FEA3060042809D8DFE800F0030B90
:102A000011171700F86940F40030F8610EE0012555
:102A100001271AE004F10800002102F04FFF04E052
:102A200004F12800002102F0C9FF0546002D2F46C1
:102A30000BD1DAF84800002520F0E060D4F8AC10A3
:102A400008435246CAF848004746E078800726D532
:102A5000E06C4FEA301003280BD8DFE800F01302D7
:102A60000D13DAF81C00514640F40030CAF81C007F
:102A700008E00125012613E004F10800022102F01C
:102A80001DFF0546002D2E460AD1DAF83C00002530
:102A900020F03000E16C08435246CAF83C003E4644
:102AA0006078C0062DD5206E4FEA303004280CD84F
:102AB000DFE800F0030E141A1A00DAF81C00514681
:102AC00040F40030CAF81C000EE00125012719E08F
:102AD00004F10800002102F0F1FE04E004F12800F6
:102AE000002102F06BFF0546002D2F460AD1DAF8CF
:102AF0004000002520F4E040216E08435246CAF809
:102B0000400037466078800627D5606E4FEA304037
:102B100005280AD8DFE800F014030E14141404F199
:102B20000800012102F0CAFE09E00125012615E096
:102B30001044025804F12800012102F03FFF05462D
:102B4000002D2E460AD1DAF84000002520F4E020BE
:102B5000616E08435246CAF840003E46607840061F
:102B600027D5D4F8B0004FEA307005280AD8DFE83E
:102B700000F012030C12121204F10800012102F0FD
:102B80009DFE07E00125012714E004F12800012142
:102B900002F014FF0546002D2F460BD1DAF848004D
:102BA000002520F0E040D4F8B01008435246CAF89F
:102BB000480037466078000622D5206F98B1B0F102
:102BC000005F0AD0B0F1805F2ED1DAF81C005146C8
:102BD00040F40030CAF81C0005E004F108000121AF
:102BE00002F06CFE0546002D2E460AD1DAF84000B0
:102BF000002520F04050216F08435246CAF840009B
:102C00003E46E078C00702D1B046574624E0A06CAB
:102C1000574603280BD8DFE800F014020E14F869B9
:102C200040F40030F8610CE001250126E9E70125B8
:102C30004FF0010810E004F10800022102F03EFE0E
:102C40000546002DA84607D1F86B002520F00300AB
:102C5000A16C0843B046F863A078400601D447460B
:102C600017E0D7F8F00340F48070C7F8F003FFF7DF
:102C70003DFA0646D7F8F003C00507D4FFF736FA49
:102C8000801B6428F6D90325032702E0002D2F4678
:102C900012D02078C00750D0E06F4FEAF00005282E
:102CA00035D8DFE800F03D03373D3D3D04F1080035
:102CB000012102F003FE32E0DAF860105346D4F846
:102CC000B400414011F4407F0BD0196E1A6E21F40C
:102CD000407142F480321A661A6E22F480321A660B
:102CE0001966B0F5807F40F07282FFF7FFF9064663
:102CF00041F2883903250327DAF86000800700F1E4
:102D00006382FFF7F3F9801B4845F5D9C1E7012538
:102D1000012613E004F12800012102F04FFE0546D0
:102D2000002D2E460AD1DAF84400002520F03800A4
:102D3000E16F08435246CAF844003E4620788007B7
:102D400023D5A06F05280AD8DFE800F012030C1283
:102D5000121204F10800012102F0B0FD07E0012584
:102D6000012713E004F12800012102F027FE0546A7
:102D7000002D2F460AD1DAF84400002520F0070084
:102D8000A16F08435246CAF84400374620784007EE
:102D900025D5D4F8940005280AD8DFE800F01203FE
:102DA0000C12121204F10800012102F087FD07E065
:102DB0000125012614E004F12800012102F0FEFDA6
:102DC0000546002D2E460BD1DAF84800002520F0EC
:102DD0000700D4F8941008435246CAF848003E460B
:102DE0002078800627D5D4F890004FEA3070052867
:102DF0000AD8DFE800F012030C12121204F10800E6
:102E0000002102F05BFD07E00125012714E004F139
:102E10002800022102F0D2FD0546002D2F460BD1DD
:102E2000DAF84400002520F0E040D4F89010084380
:102E30005246CAF8440037462078400627D5D4F8D1
:102E40009C004FEAB02005280AD8DFE800F0120302
:102E50000C12121204F10800002102F02FFD07E00D
:102E60000125012614E004F12800022102F0A6FD4C
:102E70000546002D2E460BD1DAF84800002520F437
:102E8000E050D4F89C1008435246CAF848003E4629
:102E90002078000627D5D4F8A0004FEA7030052826
:102EA0000AD8DFE800F012030C12121204F1080035
:102EB000002102F003FD07E00125012714E004F1E1
:102EC0002800022102F07AFD0546002D2F460BD185
:102ED000DAF84800002520F46040D4F8A010084338
:102EE0005246CAF8480037462068010717D5D4F87B
:102EF0008410B1F5805F0AD104F12800022102F0AC
:102F00005DFD002818BF01272068D4F88410DAF886
:102F10004420534622F440521143CAF84410C106DB
:102F200017D5D4F89810B1F5807F0AD104F12800A4
:102F3000022102F043FD002818BF01272068D4F8C1
:102F40009810DAF84820534622F440721143CAF828
:102F50004810000322D5D4F8A400B0F5003F0FD0EC
:102F6000B0F5803F06D088BB04F10800002102F0D4
:102F7000A5FC04E004F12800022102F01FFD054633
:102F8000002D2E460BD1DAF84800002520F4403001
:102F9000D4F8A41008435246CAF848003E46A07828
:102FA00040072AD5D4F88800B0F5401F17D0B0F5F7
:102FB000001F0ED0B0F5801F40F00181DAF81C0030
:102FC000514640F40030CAF81C0008E001250126F3
:102FD000E5E704F12800012102F0F0FC0546002D90
:102FE0002F460BD1DAF84400002520F44010D4F825
:102FF000881008435246CAF844003746A078C007F4
:1030000001D13E4622E0206DB0F5803F08D0D8B90E
:10301000DAF81C00514640F40030CAF81C0005E004
:1030200004F10800022102F049FC0546002D2E465D
:103030000CD1DAF83C00002520F48030216D0843E3
:103040005246CAF83C00DCE70125012621688800C9
:1030500001D4606809E004F12800022102F0AEFC0E
:10306000002818BF0126D4E900108A031BD5D4F824
:1030700080206FF0010303EB3223022B0BD34FEAC6
:10308000322343B1012B40F09D80DAF81C3043F429
:103090000033CAF81C303DB9DAF8443023F44073E9
:1030A0001A43CAF844203546CA0207D5DAF8402048
:1030B00022F00042636F1A43CAF84020CA0008D5C4
:1030C000DAF8002022F48042D4F8B8301A43CAF863
:1030D00000208A0207D5DAF8402022F08072E36EE1
:1030E0001A43CAF840204A000CD5DAF8002022F42E
:1030F0000042CAF80020D4F8BC20DAF800301A43A5
:10310000CAF80020B1F1FF3F07DCDAF83C2022F0DA
:103110004052636D1A43CAF83C20090208D5DAF818
:10312000441021F44001D4F88C201143CAF8441013
:10313000C10708D004F10800002102F0BFFB0028FD
:1031400018BF05466068810708D504F10800012111
:1031500002F0B4FB002818BF05466068410708D597
:1031600004F10800022102F0A9FB002818BF05465F
:103170006068010708D504F12800002102F01EFC58
:10318000002818BF05466068C10608D504F128006C
:10319000012102F013FC002818BF05466068800674
:1031A00003D44DB10120BDE8F08704F128000221CD
:1031B00002F004FC2843F5D10020BDE8F08701258A
:1031C00001271BE701256FE75346D4F8B40000F44C
:1031D00040711A68B1F5407F22F47C5103D1064A50
:1031E00002EA1012114319606FF31F30196E0025A7
:1031F0000843186633E500BFCFFFFF002DE9F84311
:10320000002800F000810446814D286800F00F007E
:10321000884688420BD2286820F00F0040EA080058
:103220002860286800F00F00404540F0EC802068DE
:10323000D04F41070AD52169BA6902F07002914264
:1032400004D9BA6922F070021143B96101070AD5A5
:103250006169FA6902F07002914204D9FA6922F0B8
:1032600070021143F961C1060AD5A169FA6902F435
:10327000E062914204D9FA6922F4E0621143F961F3
:1032800081060AD5E1693A6A02F07002914204D9D6
:103290003A6A22F070021143396210F002010AD03A
:1032A000E268BB6903F00F039A4204D9BB6923F0BB
:1032B0000F031A43BA61C20738D0B86920F47061AD
:1032C000D4E9010211430328B96105D0022807D1CE
:1032D000396889030DD496E03968890109D492E0F0
:1032E0000128396802D1C90503D48CE0490740F1AF
:1032F0008A803969A94621F0070108433861FEF741
:10330000F5FE064641F28835386900F038006168FC
:10331000B0EBC10F06D0FEF7E9FE801BA842F3D93F
:10332000032071E020684D4600F0020151B1E168D0
:10333000BA6902F00F02914204D2BA6922F00F0278
:103340001143B961296801F00F0141450AD9296883
:1033500021F00F0141EA08012960296801F00F01FD
:10336000414550D141070AD52169BA6902F070027E
:10337000914204D2BA6922F070021143B961010787
:103380000AD56169FA6902F07002914204D2FA69C1
:1033900022F070021143F961C1060AD5A169FA69E8
:1033A00002F4E062914204D2FA6922F4E06211432D
:1033B000F96180060AD5E069396A01F07001884236
:1033C00004D2396A21F070010843386200F064F8D1
:1033D000B969C1F303212F4A515CBB6903F00F03A4
:1033E000D25C01F01F0120FA01F102F01F00184A1F
:1033F00021FA00F01060174A064800681160BDE825
:10340000F843FEF7ABBE012001B0BDE8F08300BF7A
:10341000002000523C00002480B500F03DF80B492C
:103420000A68C2F3032209681A4B01F00F019A5C83
:10343000595C02F01F0220FA02F201F01F00044959
:1034400022FA00F0086003490A6080BD184402585F
:10345000440000244000002480B5FFF7DDFF0C4944
:103460000C4A0968C1F30211515C01F01F01C84008
:1034700080BD00BF80B5FFF7CFFF0549054A096849
:10348000C1F30221515C01F01F01C84080BD00BFA3
:103490001C4402588E74000836490869C0F3C20003
:1034A00003280CD0022828D048BB0868800637487B
:1034B00058BF70470968C1F3C101C84070478A6AA4
:1034C000886AC0F3051CCB6A486B03F00103C0F3A4
:1034D000CC00BCF1000F03FB00F000EE100AB8EEC8
:1034E000400A0ED002F00302022A0CD072B908681A
:1034F00080060ED49FED241A15E0204870471E4820
:103500007047002070479FED1F1A0CE09FED1C1ABA
:1035100009E008681D4AC0F3C10022FA00F001EE7C
:10352000100AB8EE411A02EE10CA9FED193AB8EE31
:10353000422A086B6FF35F2081EE021A02EE100A36
:10354000B8EE422A086BC0F3462000EE032AB7EE1D
:10355000000A013032EE000A21EE000A01EE100AE4
:10356000B8EE411A80EE010ABCEEC00A10EE100A55
:10357000704700BF0044025800093D0040787D01BB
:103580000024744A20BCBE4B0024744C0090D0032D
:1035900000000039F8B5002800F0B4810446007836
:1035A000D74EC00721D12078800740F1B180306923
:1035B00010F03801B06A3CD0182908BF5FEA80706B
:1035C00037D0E068002831685CD021F01901084349
:1035D0003060FEF78BFD05463068400743D4FEF7A8
:1035E00085FD401B0228F7D9A0E1306900F03801C1
:1035F000B06A102905D018290AD100F0030002286A
:1036000006D130688003CED560680028CBD179E13F
:103610006068002847D0B0F5803F06D0B0F5A02FF5
:1036200030685ED140F480203060306840F48030F3
:103630005DE030684007E06802D5002800F0628154
:10364000316821F0190108433060FEF74FFD05464F
:103650003068400707D4FEF749FD401B02284FF0B1
:103660000300F5D963E1FEF73BFD41F20301884217
:1036700030D820697168402821F47C3145D141F46B
:10368000003044E021F001003060FEF72FFD0546D8
:10369000306840073CD5FEF729FD401B02284FF05B
:1036A0000300F5D943E1306820F4803030603068A1
:1036B00020F480203060FEF719FD05463068800355
:1036C0007FF571AFFEF712FD401B64284FF0030039
:1036D000F4D92CE1706820F0FE40216940EA0160D5
:1036E00015E020F480303060306820F480203060B5
:1036F000FEF7FCFC0546306880033FF554AFFEF74B
:10370000F5FC401B6428F6D910E141EA00307060F6
:103710002078C00653D5306900F03801B06A082916
:1037200005D018290BD100F00300012807D130681B
:10373000C00519D5E069802840F0E48014E0E06914
:103740000028306827D040F080003060FEF7CEFCC3
:1037500005463068C00507D4FEF7C8FC401B0228A8
:103760004FF00300F5D9E2E0FEF7BAFC41F20301A5
:10377000884208D8206A7168202821F0F8411BD1BE
:1037800041F080401AE0F06820F07C50216A40EA65
:103790000160F06013E020F080003060FEF7A6FCCE
:1037A00005463068C0050AD5FEF7A0FC401B02287C
:1037B0004FF00300F5D9BAE041EA806070602078EC
:1037C000000723D560690028706F0ED040F001001B
:1037D0007067FEF78BFC0546706F800716D4FEF706
:1037E00085FC401B0228F7D9A0E020F0010070679B
:1037F000FEF77CFC0546706F800707D5FEF776FC68
:10380000401B02284FF00300F5D990E02078800695
:1038100023D5A069002830680ED040F48050306075
:10382000FEF764FC05463068800416D4FEF75EFCA3
:10383000401B0228F7D979E020F480503060FEF771
:1038400055FC05463068800407D5FEF74FFC401B49
:1038500002284FF00300F5D969E02078400753D4DF
:10386000656A002D00F00D81306900F038001828DD
:103870006ED1B16A012D306B44D001F00302A36A0E
:103880009A423FD1C1F30511E26A91423AD1014611
:10389000226B6FF35F21013A914233D1C0F346218D
:1038A000626B013A91422DD1C0F30641A26B013AFD
:1038B000914227D1C0F30660E16B0139884221D1E2
:1038C000706BC0F3CC00A16C814200F0DA80F06A2A
:1038D00020F00100F062FEF709FC0546FEF706FC49
:1038E000A842FBD0706B4FF6F8718843A16C40EA98
:1038F000C1007063F06A40F00100F062C1E000BFF7
:1039000000440258012012E0D6F8000440F4807010
:10391000C6F80004FEF7EAFB0546D6F80004C00529
:1039200007D4FEF7E3FB401B6428F6D9032001B05F
:10393000F0BDA06860B3012806D00528306F40F0C4
:10394000A28040F004003067306F40F00100A0E03A
:10395000306820F080703060FEF7C8FB022D05460D
:103960000AD1306880012CD5FEF7C0FB401B02282D
:103970004FF00300F5D9DAE73068800140F181802B
:10398000FEF7B4FB401B02284FF00300F4D9CEE74A
:10399000306F20F001003067306F20F00400306796
:1039A000FEF7A4FB054641F28837306F80077FF5AC
:1039B00057AFFEF79BFB401BB8424FF00300F4D912
:1039C000B5E7B06A40F2F3318843A16A226B08433D
:1039D000511E626B4FF47E4303EB4222E36A6FF3A6
:1039E0005F2192B240EA0310B0625018A16B4FF40D
:1039F000FE0202EB014101F4FE010844E16B4FF0CD
:103A0000FE4202EB016101F0FE41084430634FF6D3
:103A1000F871F06A20F00100F062706B8843A16CCD
:103A200040EAC1007063F06A20F00C00216C08438A
:103A3000F062F06A20F00200616C0843F062F06A04
:103A400040F48030F062F06A40F40030F062F06AD6
:103A500040F48020F062F06A40F00100F0623068CB
:103A600040F080703060FEF741FB04463068800112
:103A700007D4FEF73BFB001B02284FF00300F5D9EB
:103A800055E7002053E720F001003067306F20F049
:103A900004003067FEF72AFB054641F28837306F95
:103AA00080073FF5DDAEFEF721FB401BB8424FF02B
:103AB0000300F4D93BE70000411E0020B0EB116F7A
:103AC00001D001207047044A5160F021034B197066
:103AD000072190601160704710E000E023ED00E0E6
:103AE000704770477047000090F83C20012A01D1D0
:103AF000022145E010B5D0F800C0A04C4CF4806322
:103B0000CA68A3428B6822F47C524C6823F4705339
:103B100042EA03021B4B03EA040342EA03020B6876
:103B200023F4772342EA03020B6923F4762342EA63
:103B300003024B6942EA03028B6A22F4742223F4E3
:103B4000702342EA03028B694FF0010442EA034307
:103B500080F83C400DD123F07C724B6A0A4C04EA99
:103B60000353CC691A4324F00073096A1A4342EAEA
:103B700001030021CCF8443080F83C10BDE810402F
:103B800008467047FF87F0FF0000F0FC90F83C20EB
:103B9000012A4FF0020233D070B50123774E80F82E
:103BA0003C3080F83D20026842F480635468B342A0
:103BB000936802BF24F470044D682C43B2F1804F27
:103BC00024F070050C6845EA040555600BD0654C7F
:103BD000A2421CBF644CA24205D0644CA2421CBF4E
:103BE000634CA2420ED123F080038968194391608F
:103BF0000121002280F83D1080F83C20BDE8704093
:103C0000104670475B4CA242EDD05B4CA24218BFFD
:103C1000B242E8D0ECE700BF60B310B5044690F8BC
:103C20003D0028B9002084F83C00204600F024F82C
:103C3000022084F83D00211D206802F003F80120D5
:103C400084F8480084F83E0084F83F0084F840007F
:103C500084F8410084F8420084F8430084F844006A
:103C600084F8450084F8460084F8470084F83D0055
:103C7000002010BD01207047E0B50068B0F1804F12
:103C800011D03849884222D03749884228D0394952
:103C900088422FD11848816841F001018160806815
:103CA00000F0010024E014480168002241F0010105
:103CB00001600021006800F00100019001981C20C3
:103CC000FEF78EFA1C20BDE88C40FEF77BBA0A484E
:103CD000016841F002010160006800F0020007E0A5
:103CE0000548016841F004010160006800F004002B
:103CF000019001988CBD00BFE844025890F83D1037
:103D000001291DD1022180F83D100168B1F1804FD9
:103D10000BD0E94881421CBF1348814205D01348AB
:103D200081421CBF124881420CD18868144A02406B
:103D3000062A4FF0000018BFB2F5803F0BD1704744
:103D400001207047DD488142EFD00B488142ECD022
:103D50000A488142E9D0086840F00100086000206C
:103D6000704700BF0004004000080040000C004005
:103D700000180040000001400040014000040140E4
:103D80000700010010B5044690F83C0001284FF0F0
:103D900002001FD00122404B84F83C2084F83D00F3
:103DA000206882681A4082600A682AB1102A03D00B
:103DB000202A18BF302A0ED181683B4B194011438D
:103DC00041F0070181600020012184F83D100021AD
:103DD00084F83C1010BD402A2AD0502A33D0602AE3
:103DE0003CD02E4B9A42E7D0B2F5805FEBD0B2F5D3
:103DF000005F3ED0B2F5801F18BFB2F1101FDBD0BC
:103E0000274B9A42D8D0274B9A42D5D0702A40D11E
:103E1000D1E901C3C96843EA0C03826843EA01217E
:103E200022F47F4211438160816841F07701C9E744
:103E30004B68CA68194602F0DDF820681A4A8168A2
:103E400011404731BEE74B68CA68194602F0D2F804
:103E50002068154A816811405731B3E74B68CA683A
:103E6000194602F0D8F820680F4A8168114067317E
:103E7000A8E7D1E901C3C96843EA0C03826843EAB1
:103E8000012122F47F4211438160816841F4804125
:103E900098E7012098E700BF8800CEFF400010009F
:103EA000200010003000100088FFCFFF704710B5D1
:103EB000044600680169890744BFC1685FEA8171EF
:103EC0003FD40169490744BFC1685FEA417144D4E6
:103ED0000169090744BFC1685FEA01714AD40169F9
:103EE000C90644BFC1685FEAC1614FD40169C9070F
:103EF0001CBFC1685FEAC17155D10169090644BFA1
:103F0000C1685FEA016156D40169C90544BFC1684F
:103F10005FEA016157D40169490644BFC1685FEA9D
:103F2000416158D40169890646BFC1685FEA816171
:103F300010BD6FF0200101612046BDE81040FFF781
:103F4000D1BD6FF0020101610121217780698007F5
:103F500049D02046FFF7AAFF4BE06FF00401016152
:103F600002212177806910F4407F46D02046FFF778
:103F70009DFF48E06FF00801016104212177C069CD
:103F8000800744D02046FFF791FF46E06FF0100114
:103F9000016108212177C06910F4407F41D020469B
:103FA000FFF784FF43E06FF001010161204600F05C
:103FB000B7F92068A1E76FF0800101612046FFF7A3
:103FC00090FD2068A0E76FF4807101612046FFF743
:103FD00087FD20689FE76FF040010161204600F0F7
:103FE000A0F920689EE7204600F06EF8204600F019
:103FF000FBF800202077206863E7204600F064F893
:10400000204600F0F1F800202077206860E7204685
:1040100000F05AF8204600F0E7F8002020772068EA
:104020005DE7204600F050F8204600F0DDF8002063
:10403000207720685AE7000010B586B0044601A832
:104040001421FCF77DF92068AB4988421BD0AE49AA
:1040500088422ED11A48016841F01001016001A97F
:10406000006800F01000009000984FF4007001907C
:10407000022002900020CDE90300012005901148A4
:1040800000F5805013E00E48016841F00101016025
:104090000021006800F0010000900098802001904D
:1040A00002200290CDE9031101A905900548FDF712
:1040B00043FF06B010BD00BF0004004000000140F7
:1040C000E04402580000025870470000B0B50446B2
:1040D00090F83C00012801D10220B0BD0D464FEA06
:1040E000B2010120052984F83C0048D8DFE801F03E
:1040F000030B131B23332068294601F025FE20689B
:1041000050F8181F1EE02068294601F057FE20686D
:1041100050F8181F26E02068294601F08BFE206821
:1041200050F81C1F0EE02068294601F0C1FE2068EF
:1041300050F81C1F16E02068294601F0EBFE2068AD
:1041400050F8541F41F008010160016821F004019A
:10415000016029690FE02068294601F00FFF2068FF
:1041600050F8541F41F400610160016821F480613E
:1041700001602969090202681143016000200021E1
:1041800084F83C10B0BD60B310B5044690F83D0013
:1041900028B9002084F83C00204600F024F80220D2
:1041A00084F83D00211D206801F04CFD012084F8B9
:1041B000480084F83E0084F83F0084F8400084F80A
:1041C000410084F8420084F8430084F8440084F8F5
:1041D000450084F8460084F8470084F83D0000203C
:1041E00010BD0120704770477047000010B50029CE
:1041F00004460BD0081F4FEAB000032809D8DFE8B7
:1042000000F0020B0E1104F13F000DE004F13E003E
:104210000AE004F1430007E004F1400004E004F187
:10422000410001E004F14200007801280DD171B194
:10423000081F4FEAB00003280DD8DFE800F0021095
:104240001418022084F83F0014E0012010BD022061
:1042500084F83E000EE0022084F843000AE00220C9
:1042600084F8400006E0022084F8410002E00220C9
:1042700084F842002068012201F056FD2168B1F166
:10428000804F0BD01C4881421CBF1C48814205D086
:104290001B4881421CBF1B4881420AD188681F4AC3
:1042A0000240062A4FF0000018BFB2F5803F1CD133
:1042B00010BD154881421CBF144A91420CD14A6C72
:1042C000814242F400424A64E8D011488142E5D07C
:1042D0000E488142E2D008E00D4A9142EFD00D4AEB
:1042E0009142ECD00C4A9142E9D0086840F00100BC
:1042F0000860002010BD00BF00040040000800401E
:10430000000C004000180040000001400004014083
:104310000040014000480140004401400700010006
:104320007047704790F88410012901D1022112E0F2
:104330002421C0F8881002681368116823F0005324
:1043400021F0010111600021416613602022C0F8B4
:10435000882080F884100846704770477047B0B5D1
:10436000044690F88400012801D10220B0BD01204C
:1043700084F884002420C4F8880020680568026856
:1043800022F001020260826822F0606211438160C3
:10439000204601F059FE206805602020C4F88800FE
:1043A000002084F88400B0BDB0B5044690F88400C5
:1043B000012801D10220B0BD012084F8840024200E
:1043C000C4F8880020680568026822F001020260D3
:1043D000826822F0604211438160204601F034FE81
:1043E000206805602020C4F88800002084F884003C
:1043F000B0BD704770477047B0B504460068C269E9
:1044000040F60F0105680A42D0F808C000F08B8022
:10441000BC490CEA010EBC49294011EB0E0100F029
:104420008C80D10718BF15F4807107D0012101627B
:10443000D4F8901041F00101C4F8901091070CF0ED
:10444000010308D53BB102210162D4F8901041F07C
:104450000401C4F89010510708D53BB10421016252
:10446000D4F8901041F00201C4F8901011070CD557
:1044700005F0200151EA0E0107D008210162D4F8AD
:10448000901041F00801C4F8901011050BD515F0FB
:10449000806108D04FF400610162D4F8901041F0BF
:1044A0002001C4F89010D4F89010002900F0FE808C
:1044B00091060AD505F020010CF08052891804D02D
:1044C000616F11B1204688472068D4F89010806849
:1044D00001F0280100F04000401800F0E180204683
:1044E00001F0A2FE20688168490601D4D3E020686B
:1044F00050E8020F216820F0400041E80202002A43
:10450000F5D1D4F88000002800F0C5807F4901650E
:10451000FCF74EFF002800F0C980D4F88000016D40
:10452000BDE8B0400847910607D505F020010CF022
:104530008053C91801D0616FA8E005EA0203D906CB
:10454000E16E3BD5012939D110210162816849060C
:1045500041D4B4F85C10B4F85E20B4F85E30002B9F
:1045600000F0A480891A0A0401D19FE0206850E875
:10457000000F226820F4907042E80003002BF5D170
:104580006348226852E8022F2368024043E802256C
:10459000002DF6D12020C4F88C000020E066606772
:1045A000206850E8000F226820F0100042E8000365
:1045B000002BF5D189B20220206758E0D1025BD5EB
:1045C0001CF4800158D04FF4801101622046BDE8F0
:1045D000B040FFF70FBFD4F8802011684B6899B244
:1045E000002963D0B4F85CC061455FD2A4F85E30A6
:1045F000D169B1F5807F01D132E0206850E8000F29
:10460000216820F4807041E80002002AF5D120687A
:1046100050E8020F216820F0010041E80202002A60
:10462000F5D1206850E8020F216820F0400041E8F1
:104630000202002AF5D12020C4F88C000020E06698
:10464000206850E8000F216820F0100041E80002C7
:10465000002AF5D1D4F88000FCF722FDB4F85CC044
:1046600002202067B4F85E00ACEB000081B2204667
:10467000BDE8B040FFF771BE110618D505F0800EF9
:104680000CF4000111EB0E0111D0A16F71B12046A5
:10469000BDE8B04008472046BDE8B040FFF7ABBEDC
:1046A0002046FFF7A8FE0020C4F89000B0BD5906D0
:1046B0000AD410021BD515F0804018D02046BDE862
:1046C000B040FFF796BE206850E8000F216820F048
:1046D000400041E80002002AF5D12020C4F88800FB
:1046E0000020A0672046BDE8B04000F019BCD00112
:1046F000DCD5B5F1FF3FD9DC2046BDE8B040FFF77F
:104700002DBE00BF01000010200100041762000848
:10471000FEFFFFEF10B5B0B10446D0F8880028B90D
:10472000002084F88400204600F026F82420C4F8F5
:1047300088002068016821F001010160204602F034
:1047400019F8012801D1012010BDA06A10B120463E
:1047500001F0A4FC2068416821F490414160816827
:1047600021F02A018160016841F0010101602046C9
:10477000BDE8104001F0F5BC2DE9F041B8B00446A9
:1047800033A81421FBF7DCFD02A8C021FBF7D8FDFC
:1047900020686B49884238D06A49884268D06A49A3
:1047A000884240F0C98000240225039402A80295A3
:1047B0002094FEF757F808B1FBF7E9FF63488168DA
:1047C00041F000418160816801F00041019101994F
:1047D000016841F01001016033A9006800F0100089
:1047E000019001980320CDE933050820CDE9354437
:1047F0003790574800F58050FDF79EFB532000216D
:104800000022FDF7EDFC532094E0012000240290EB
:1048100002A803942194FEF725F808B1FBF7B7FF2F
:104820004A48016941F020010161016901F020015C
:1048300001910199016841F00401016033A9006808
:1048400000F0040001900198C02033900220CDE9CF
:1048500034040720369437903D4800F50060FDF79A
:104860006BFB472000210022FDF7BAFC472061E0E6
:1048700001200026029002A803962196FDF7F2FF80
:1048800008B1FBF784FF31480169324F41F0100154
:104890000161016901F0100101910199016841F084
:1048A0000101016033A9006800F001000190019846
:1048B0004FF4C06033900220CDE9340607203696CD
:1048C00037902348FDF738FB234D2920B846C5E92A
:1048D00000704FF48067AE6005F114001421C5E943
:1048E0000367FBF72DFD2846FDF706F908B1FBF736
:1048F0004EFFC4F8805008F11800AC632A21174D10
:10490000286040206960002105F1080283C205F19A
:1049100014001421FBF714FD2846FDF7EDF808B14B
:10492000FBF735FF2520E5670021AC630022FDF78A
:1049300057FC2520FDF746FC38B0BDE8F08100BFEC
:104940000014014000100140007C0040E044025887
:104950000000025810000240140100248C010024C1
:10496000D0F88C30202B20D100294FF0010318BF44
:10497000002A1BD010B500230D4CC3660368A34268
:104980000DD05C68240201D409E0036853E8003FBD
:10499000046843F0806C44E800C3002BF5D102F0BA
:1049A000B7F80023BDE8104000E002231846704726
:1049B000000C005870B5DFF88C2E9042DFF8AC1474
:1049C00040D10B78012B3DD1DFF8AC4494F8560070
:1049D000207120631068416AC8B240F02002762A34
:1049E00005D1227F1AB901222277A2712275627F36
:1049F000002A4CD06FF0400252FA81F2192A40F29C
:104A0000C380A0F16102192A00F22882DFE812F0C7
:104A10000502D80026022602260226022602E90105
:104A2000FB0026022602F8011B01260226022602AE
:104A3000260226024101260210022602190226023F
:104A400050016F01DFF8942D904200F06C80DFF888
:104A50005C1E884240F01C81DFF81C04417801296B
:104A600040F0168190F856106129017100F05281D2
:104A7000642900F05381732900F05481742900F0F7
:104A80005581772940F054810721417650E16FF03C
:104A9000400252FA81F2392A00F2E081DFE812F096
:104AA000BD019000DE01DE01DE01DE01DE01A101BB
:104AB000B300DE01DE01B001D300DE01DE013A0009
:104AC000DE01DE01F900DE01C801DE01D101DE01F7
:104AD00008012701DE01DE01DE01DE01DE01DE016B
:104AE000BD019000DE01DE01DE01DE01DE01A1017B
:104AF000B300DE01DE01B001D300DE01DE013A00C9
:104B0000DE01DE01F900DE01C801DE01D101DE01B6
:104B100008012701A27F002A7FF46CAF0122A2774F
:104B20000222A27166E7DFF8506396F85640487893
:104B30003471023C8B780E2CCA7886F8290086F8EE
:104B40002A2086F82B3000F24481DFE814F00F00B1
:104B500008011A011D01210127012B012E0130013D
:104B60003301350138013A013D01400145F2AA53B4
:104B7000314621F8483F01238B70C8704AF6552012
:104B80000A71A1F80500F7E0DFE812F047011A000A
:104B9000680168016801680168012B013D00680136
:104BA00068013A015D0068016801680168016801F7
:104BB00083006801520168015B0168019200B10045
:104BC000E27F22B901220323E277A37162756FF0BD
:104BD000470252FA81F2122A00F21D81DFE812F038
:104BE000010113003E013E01100133003E013E0170
:104BF0003E013E013E0197003E0128013E01310188
:104C00003E01AC00530094F8202022B9012284F820
:104C10002020A27162756FF04B0252FA81F20E2AC7
:104C200000F2DB80DFE812F0EC000F001A011A013D
:104C30001A011A011A0173001A0104011A010D0167
:104C40001A0188002F0094F8212022B9012284F84B
:104C50002120A271A2756FF0520252FA81F10E2941
:104C600000F27880DFE811F05300FA00E400FA0067
:104C7000ED00FA0068000F00FA00FA00FA00FA00EE
:104C8000FA00FA00D900012084F82200A073E5E0C0
:104C900070BD01215528617700F0CA80572800F0C7
:104CA000D080612800F0B9806C2840F09880A7E09F
:104CB000E17D0222A2730131CB074FF0010308BF4F
:104CC00002236128E17584F8233000F0A68068286B
:104CD00000F087806C2800F09380772800F0B18086
:104CE000752800F0A580732840F0B8800FE06FF0C1
:104CF000720353FA81F10122062984F82220A2735B
:104D000026D8DFE801F004AB95AB9EAB190001207B
:104D10006077A3E0012180F82D1009E0012180F8DF
:104D2000231005E0012180F82C1001E001214177DA
:104D300000F15601514894E0E07D0221A173012168
:104D40000130C207E07508BF022184F8231085E016
:104D5000612862D0682844D06C2851D07EE045F2AA
:104D6000AA50314621F84F0F022088704FF4AA4014
:104D7000CB708880AA2088713E48072200F080F816
:104D800027E00620707624E0012086F8220003E068
:104D9000012086F823000220B0731AE0012086F873
:104DA0002C0016E00120707713E0012000E00020C5
:104DB00030700EE0012000E00020707009E001205A
:104DC00000E00020087004E00120B07001E0012044
:104DD000F07006F15601274843E061281DD068288D
:104DE0003CD194F8241019B9012184F824102174BD
:104DF000612812D055281BD0572822D04C282DD1FD
:104E000094F8251019B9012184F8251061745528EA
:104E10000ED0572815D0612820D194F8261019B942
:104E2000012184F82610E17457280AD0552815D19D
:104E300094F8271019B9012184F82710A174572874
:104E40000CD194F8280048B90125062084F8285090
:104E5000607641F28830FDF711F8657704F156016C
:104E600003480122BDE87040FFF77ABD000000242E
:104E7000340300245C04002448000024C8030024F8
:104E8000D0F88830202B1DD100294FF0010318BF26
:104E9000002A3AD001650021A0F85420A0F856203D
:104EA0008167C0F890102121C0F88810416EB1F1DF
:104EB000005F816808D1B1F5805F01D1016951B10E
:104EC000164909E0022320E0B1F5805F01D10169B4
:104ED00071B110490DE010498167016851E8021F66
:104EE000026841F4000142E80213002BF5D10BE007
:104EF00007498167016851E8001F026841F080019D
:104F000042E80013002BF5D100231846704700BF7C
:104F10002D6C0008EF6C0008836C0008416D0008E0
:104F20007047FEE72DE9F8430746DFF8F8912A209D
:104F3000984615460E46C847074C3846A0472846AF
:104F4000A0472B20C8473046A0474046A0472C200A
:104F50004946BDE8F8430847F151000810B514462A
:104F600002460B46FFF7DEFF2046BDE8104000F08A
:104F70003FB92DE9F8430E46089C8146501E591E44
:104F80009846154682B28BB248463146FFF7CAFFB3
:104F900009E04F4603E0204600F02AF90137B8B295
:104FA000A842F8D30136B0B24045F2D3BDE8F88349
:104FB00070B54FF48041594E0022B44C2046B047A2
:104FC000574D6420A8474FF4804101222046B04746
:104FD0006420A84704F540604FF480710122B04777
:104FE0006420A8474F4E1120B0477820A847B12031
:104FF000B0474D4C0520A0473C20A0473C20A0478F
:10500000B220B0470520A0473C20A0473C20A04745
:10501000B320B0470520A0473C20A0473C20A04734
:105020000520A0473C20A0473C20A047B420B04723
:105030000320A047C020B0472820A0470820A04751
:105040000420A047C120B047C020A047C220B047DD
:105050000D20A0470020A047C320B0478D20A047C7
:105060002A20A047C420B0478D20A047EE20A047AB
:10507000C520B0471A20A0473620B047C020A0471F
:10508000E020B0470420A0472220A0470720A047E7
:105090000A20A0472E20A0473020A0472520A04767
:1050A0002A20A0472820A0472620A0472E20A0473E
:1050B0003A20A0470020A0470120A0470320A04796
:1050C0001320A047E120B0470420A0471620A047A6
:1050D0000620A0470D20A0472D20A0472620A0474E
:1050E0002320A0472720A0472720A0472520A0470E
:1050F0002D20A0473B20A0470020A0470120A0472B
:105100000420A0471320A0473A20B0470520A0471D
:1051100029203146BDE87040084700BFD72000086D
:105120007D1E0008055200082D5200082DE9FE4F93
:105130000D9FC7F180060290864253DBC7F1A000A5
:105140000E4688424EDB1D46F8087B074FF00101F2
:1051500018BF01EBD700182F05D0102F09D1234914
:1051600001EB421104E002EBC2011F4A02EBC10154
:10517000009100FB07FBDDF8089007EB09000C9F8E
:10518000002401902BE000994FF0000A11F80080F4
:1051900015E04FFA88F0B0F1FF3F04DD1FFA89F007
:1051A000B1B23A4603E01FFA89F0B1B22A46FFF7DE
:1051B000D5FE4FEA480809F101090AF1010ABAF1DE
:1051C000070FE6D91FFA89F00199013481424FF0A7
:1051D000000098BF01200644029898BF8146A0B203
:1051E0008345D0D8BDE8FE8FDE720008BE7000088F
:1051F00010B50446000A00F019F8E0B2BDE810400E
:1052000000F014B8B0B50446074D802100222846AE
:10521000FCF761FF204600F009F8802101222846B2
:10522000BDE8B040FCF757BF0010025870B5054606
:10523000164C4FF48051002220460026FCF74BFF0D
:1052400019E04FF4005100222046FCF744FF68B2F9
:105250004FF40041B0F1FF3F01DD002200E00122E8
:105260002046FCF738FF4FF4005101222046FCF79E
:1052700032FF6D000136072EE3D94FF48051012231
:105280002046BDE87040FCF726BF00BF000402586E
:10529000C1F3406300EB8300D0F814C0C1F30451A4
:1052A00007238B402CEA030302FA01F11943416101
:1052B00070470000B0B58AB00025684609951C21EA
:1052C000CDE90755FBF73CF81C4C1D484FF48021F5
:1052D00084E823000420C4E903504FF48070A082C6
:1052E0000120A06104F1240015212577FBF728F89F
:1052F0002046FBF781FD08B1FBF749FA0F4807A9E3
:105300000795FBF74DFA08B1FBF741FA0D480090FD
:1053100040F2FF71062001900020029003910421C9
:10532000CDE904108DF8190069460448FBF78AFAA4
:1053300008B1FBF72CFA0AB0B0BD00BFB0000024E2
:10534000002002400080F03EE0B50E4801680022D7
:1053500041F0010101600021006800F001000190AE
:1053600001980B20FCF73CFF0B20FCF72BFF0C20D7
:1053700000210022FCF734FF0C20BDE88C40FCF734
:1053800021BF00BFD84402582DE9F04F87B0002656
:105390006048624DCDE905660168012241F0800157
:1053A00001600227016801F0800101910199016803
:1053B00041F004010160016801F0040101910199CB
:1053C000016841F001010160016801F001010191F2
:1053D0000199016841F002010160016801F00201D8
:1053E00001910199016841F010010160016801F02B
:1053F000100101910199016841F008010160022149
:10540000006800F0080001900198434800F500642E
:1054100082462046A8474FF48A7100225046A8478A
:105420004FF4815100222046A8470AF5806B4FF2C5
:10543000010100225846A847022101225846A847E8
:105440000AF580504FF4186100900022A8470AF531
:10545000406944F2010100224846A8474FF0010884
:1054600002ADCDE90286049720462D4F2946B84764
:105470000220CDE90208CDE9046020462946B8475C
:105480004FF48A70CDE90208504629464FF00108D2
:10549000CDE90466B847202002904FF44410CDE9CE
:1054A000030650462946B8474FF48150CDE902081B
:1054B00020462946CDE90466B8474FF20300CDE9FE
:1054C000020858462946CDE90466B8474FF41860EB
:1054D000CDE90208CDE9046600982946B84744F2B0
:1054E0000100CDE9020848462946CDE90466B847DF
:1054F0004020CDE90206484604962946B8471720C1
:1055000000210022FCF76CFE1720FCF75BFE07B0C1
:10551000BDE8F08FE044025800000258D720000890
:10552000391F0008B0B59AB00CAC00251C211995A4
:105530002046CDE91755CDE91555CDE91355FAF7B4
:10554000FFFE01A82C21FAF7FBFE2D482D4903226E
:10555000C0E9001240F2E731C0E90251C0E9045548
:105560008561FEF759FB08B1FBF711F94FF4805044
:10557000169016A92248FEF705FC08B1FBF707F9BB
:105580001F48FEF700FE08B1FBF701F90020CDE946
:105590001300159013A91A48FEF7F8FA08B1FBF7A3
:1055A000F6F860200C904FF4FA700D9004F10800AA
:1055B0001421FAF7C5FE1248002221460025FEF705
:1055C00085FD08B1FBF7E3F801AC14212046FAF79A
:1055D000B7FE4FF40050CDE906054FF00070089576
:1055E000CDE90905064821460B95FEF77DFA08B17D
:1055F000FBF7CDF80248FEF71FFD1AB0B0BD00BFA3
:10560000040200240000014080B588B00021174842
:105610004FF0804207914723CDE90511CDE90311F1
:10562000CDE90111C0E900234FF6FF72C0E9021273
:1056300001618161FEF7F0FA08B1FBF7A8F84FF4B9
:105640008050049004A90948FEF79CFB08B1FBF7C1
:105650009EF80020019001A903900448FEF796FAF5
:1056600008B1FBF794F808B080BD00BF50020024D9
:1056700010B58EB0002468460D941C21CDE90B4472
:10568000CDE90944CDE90744FAF75AFE1F482049FD
:105690000322C0E9001240F2E731C0E90241802153
:1056A00004618161FEF7B8FA08B1FBF770F84FF4B6
:1056B00080500A900AA91548FEF764FB08B1FBF771
:1056C00066F81248FEF75FFD08B1FBF760F80024AA
:1056D0000E4807A907940994FEF758FA08B1FBF79A
:1056E00056F8602000904FF4FA70CDE90104694645
:1056F000064804220494FEF7E9FC08B1FBF747F8DA
:105700000248FEF799FC0EB010BD00BF9C020024B9
:105710000004004080B588B000211648164A47238F
:105720000791CDE90511CDE90311CDE90111C0E9DA
:1057300000234FF6FF72C0E9021201618161FEF79A
:105740006BFA08B1FBF723F84FF48050049004A9DA
:105750000848FEF717FB08B1FBF719F80020019085
:1057600001A903900348FEF711FA08B1FBF70FF8FF
:1057700008B080BDE80200240008004010B5174CB6
:1057800017484FF4165120600020C4E901100C2185
:10579000E060C4E9040104F118001421FAF7D0FD17
:1057A0002046FEF7B7FF08B1FAF7F1FF0B480021DA
:1057B000FEF7FAFD08B1FAF7EAFF08480021FEF704
:1057C000CEFD08B1FAF7E3FF0448FEF7ABFD18B1D0
:1057D000BDE81040FAF7DBBF10BD00BF5C04002439
:1057E000007C004010B5174C17484FF4165120604C
:1057F0000020C4E901100C21E060C4E9040104F1B7
:1058000018001421FAF79CFD2046FEF783FF08B12B
:10581000FAF7BDFF0B480021FEF7C6FD08B1FAF705
:10582000B6FF08480021FEF79AFD08B1FAF7AFFF6E
:105830000448FEF777FD18B1BDE81040FAF7A7BF9E
:1058400010BD00BF340300240010014010B5174CF8
:1058500017484FF4165120600020C4E901100C21B4
:10586000E060C4E9040104F118001421FAF768FDAE
:105870002046FEF74FFF08B1FAF789FF0B480021D9
:10588000FEF792FD08B1FAF782FF08480021FEF703
:1058900066FD08B1FAF77BFF0448FEF743FD18B137
:1058A000BDE81040FAF773BF10BD00BFC803002465
:1058B00000140140FEE7FEE770470000F8B5D64F40
:1058C000BA6A02F00302032A01D1012074E00546FE
:1058D000386820F080600C463860FCF707FC06460C
:1058E0003868000105D5FCF701FC801B0228F7D9B8
:1058F0005FE0B86A4FF47E43696820F47C30AA68A0
:10590000013903EB42222B686FF35F2192B240EA28
:1059100003301144EA684FF4FE03B86203EB02421D
:1059200002F4FE02881829694FF0FE4202EB016181
:1059300001F0FE410844B863002CF86A20F0C00072
:10594000696940EA0100F862F86A20F02000A9695C
:1059500040EA0100F8624FF6F871F86A20F0100092
:10596000F862F86B20EA0100E96940EAC100F863D7
:10597000F86A40F01000F86205D0012CF86A06D1F0
:1059800040F4801005E0F86A40F4002001E040F4A3
:105990000010F862386840F080603860FCF7A6FBC1
:1059A00004463868000106D4FCF7A0FB001B03285E
:1059B000F7D3032000E0002001B0F0BDF8B5964F0A
:1059C000BA6A02F00302032A01D1012074E00546FD
:1059D000386820F080500C463860FCF787FB06469C
:1059E0003868800005D5FCF781FB801B0228F7D9B9
:1059F0005FE0B86A4FF47E43696820F07C70AA6863
:105A0000013903EB42222B686FF35F2192B240EA27
:105A100003501144EA684FF4FE03B86203EB0242FC
:105A200002F4FE02881829694FF0FE4202EB016180
:105A300001F0FE4108443864002CF86A20F440600C
:105A4000696940EA0100F862F86A20F40070A96907
:105A500040EA0100F8624FF6F871F86A20F48070AD
:105A6000F862786C20EA0100E96940EAC1007864D4
:105A7000F86A40F48070F86205D0012CF86A06D10B
:105A800040F4000005E0F86A40F4800001E040F0D6
:105A90008070F862386840F080503860FCF726FB70
:105AA00004463868800006D4FCF720FB001B03285E
:105AB000F7D3032000E0002001B0F0BD7047FCF7F1
:105AC00019BB0000B0B59CB009A82C4C4C21FAF7CA
:105AD00037FC01A82021FAF733FC0220FCF7B0FBC9
